{
	"study/DelegateCall.sol": {
		"B": {
			"abi": [
				{
					"inputs": [],
					"name": "data",
					"outputs": [
						{
							"internalType": "bytes",
							"name": "",
							"type": "bytes"
						}
					],
					"stateMutability": "view",
					"type": "function"
				},
				{
					"inputs": [],
					"name": "sender",
					"outputs": [
						{
							"internalType": "address",
							"name": "",
							"type": "address"
						}
					],
					"stateMutability": "view",
					"type": "function"
				},
				{
					"inputs": [
						{
							"internalType": "uint256",
							"name": "_num",
							"type": "uint256"
						}
					],
					"name": "setVars",
					"outputs": [],
					"stateMutability": "payable",
					"type": "function"
				},
				{
					"inputs": [],
					"name": "value",
					"outputs": [
						{
							"internalType": "uint256",
							"name": "",
							"type": "uint256"
						}
					],
					"stateMutability": "view",
					"type": "function"
				},
				{
					"inputs": [],
					"name": "x",
					"outputs": [
						{
							"internalType": "uint256",
							"name": "",
							"type": "uint256"
						}
					],
					"stateMutability": "view",
					"type": "function"
				}
			],
			"devdoc": {
				"kind": "dev",
				"methods": {},
				"version": 1
			},
			"evm": {
				"assembly": "    /* \"study/DelegateCall.sol\":58:329  contract B{... */\n  mstore(0x40, 0x80)\n  callvalue\n  dup1\n  iszero\n  tag_1\n  jumpi\n  revert(0x00, 0x00)\ntag_1:\n  pop\n  dataSize(sub_0)\n  dup1\n  dataOffset(sub_0)\n  0x00\n  codecopy\n  0x00\n  return\nstop\n\nsub_0: assembly {\n        /* \"study/DelegateCall.sol\":58:329  contract B{... */\n      mstore(0x40, 0x80)\n      jumpi(tag_1, lt(calldatasize, 0x04))\n      shr(0xe0, calldataload(0x00))\n      dup1\n      0x0c55699c\n      eq\n      tag_2\n      jumpi\n      dup1\n      0x3fa4f245\n      eq\n      tag_3\n      jumpi\n      dup1\n      0x6466414b\n      eq\n      tag_4\n      jumpi\n      dup1\n      0x67e404ce\n      eq\n      tag_5\n      jumpi\n      dup1\n      0x73d4a13a\n      eq\n      tag_6\n      jumpi\n    tag_1:\n      revert(0x00, 0x00)\n        /* \"study/DelegateCall.sol\":75:91  uint256 public x */\n    tag_2:\n      callvalue\n      dup1\n      iszero\n      tag_7\n      jumpi\n      revert(0x00, 0x00)\n    tag_7:\n      pop\n      tag_8\n      tag_9\n      jump\t// in\n    tag_8:\n      mload(0x40)\n      tag_10\n      swap2\n      swap1\n      tag_11\n      jump\t// in\n    tag_10:\n      mload(0x40)\n      dup1\n      swap2\n      sub\n      swap1\n      return\n        /* \"study/DelegateCall.sol\":124:144  uint256 public value */\n    tag_3:\n      callvalue\n      dup1\n      iszero\n      tag_12\n      jumpi\n      revert(0x00, 0x00)\n    tag_12:\n      pop\n      tag_13\n      tag_14\n      jump\t// in\n    tag_13:\n      mload(0x40)\n      tag_15\n      swap2\n      swap1\n      tag_11\n      jump\t// in\n    tag_15:\n      mload(0x40)\n      dup1\n      swap2\n      sub\n      swap1\n      return\n        /* \"study/DelegateCall.sol\":174:327  function setVars(uint256 _num)external payable {... */\n    tag_4:\n      tag_16\n      0x04\n      dup1\n      calldatasize\n      sub\n      dup2\n      add\n      swap1\n      tag_17\n      swap2\n      swap1\n      tag_18\n      jump\t// in\n    tag_17:\n      tag_19\n      jump\t// in\n    tag_16:\n      stop\n        /* \"study/DelegateCall.sol\":97:118  address public sender */\n    tag_5:\n      callvalue\n      dup1\n      iszero\n      tag_20\n      jumpi\n      revert(0x00, 0x00)\n    tag_20:\n      pop\n      tag_21\n      tag_22\n      jump\t// in\n    tag_21:\n      mload(0x40)\n      tag_23\n      swap2\n      swap1\n      tag_24\n      jump\t// in\n    tag_23:\n      mload(0x40)\n      dup1\n      swap2\n      sub\n      swap1\n      return\n        /* \"study/DelegateCall.sol\":150:167  bytes public data */\n    tag_6:\n      callvalue\n      dup1\n      iszero\n      tag_25\n      jumpi\n      revert(0x00, 0x00)\n    tag_25:\n      pop\n      tag_26\n      tag_27\n      jump\t// in\n    tag_26:\n      mload(0x40)\n      tag_28\n      swap2\n      swap1\n      tag_29\n      jump\t// in\n    tag_28:\n      mload(0x40)\n      dup1\n      swap2\n      sub\n      swap1\n      return\n        /* \"study/DelegateCall.sol\":75:91  uint256 public x */\n    tag_9:\n      sload(0x00)\n      dup2\n      jump\t// out\n        /* \"study/DelegateCall.sol\":124:144  uint256 public value */\n    tag_14:\n      sload(0x02)\n      dup2\n      jump\t// out\n        /* \"study/DelegateCall.sol\":174:327  function setVars(uint256 _num)external payable {... */\n    tag_19:\n        /* \"study/DelegateCall.sol\":235:239  _num */\n      dup1\n        /* \"study/DelegateCall.sol\":231:232  x */\n      0x00\n        /* \"study/DelegateCall.sol\":231:239  x = _num */\n      dup2\n      swap1\n      sstore\n      pop\n        /* \"study/DelegateCall.sol\":258:268  msg.sender */\n      caller\n        /* \"study/DelegateCall.sol\":249:255  sender */\n      0x01\n      0x00\n        /* \"study/DelegateCall.sol\":249:268  sender = msg.sender */\n      0x0100\n      exp\n      dup2\n      sload\n      dup2\n      0xffffffffffffffffffffffffffffffffffffffff\n      mul\n      not\n      and\n      swap1\n      dup4\n      0xffffffffffffffffffffffffffffffffffffffff\n      and\n      mul\n      or\n      swap1\n      sstore\n      pop\n        /* \"study/DelegateCall.sol\":286:295  msg.value */\n      callvalue\n        /* \"study/DelegateCall.sol\":278:283  value */\n      0x02\n        /* \"study/DelegateCall.sol\":278:295  value = msg.value */\n      dup2\n      swap1\n      sstore\n      pop\n        /* \"study/DelegateCall.sol\":312:320  msg.data */\n      0x00\n      calldatasize\n        /* \"study/DelegateCall.sol\":305:309  data */\n      0x03\n        /* \"study/DelegateCall.sol\":305:320  data = msg.data */\n      swap2\n      dup3\n      tag_31\n      swap3\n      swap2\n      swap1\n      tag_32\n      jump\t// in\n    tag_31:\n      pop\n        /* \"study/DelegateCall.sol\":174:327  function setVars(uint256 _num)external payable {... */\n      pop\n      jump\t// out\n        /* \"study/DelegateCall.sol\":97:118  address public sender */\n    tag_22:\n      0x01\n      0x00\n      swap1\n      sload\n      swap1\n      0x0100\n      exp\n      swap1\n      div\n      0xffffffffffffffffffffffffffffffffffffffff\n      and\n      dup2\n      jump\t// out\n        /* \"study/DelegateCall.sol\":150:167  bytes public data */\n    tag_27:\n      0x03\n      dup1\n      sload\n      tag_33\n      swap1\n      tag_34\n      jump\t// in\n    tag_33:\n      dup1\n      0x1f\n      add\n      0x20\n      dup1\n      swap2\n      div\n      mul\n      0x20\n      add\n      mload(0x40)\n      swap1\n      dup2\n      add\n      0x40\n      mstore\n      dup1\n      swap3\n      swap2\n      swap1\n      dup2\n      dup2\n      mstore\n      0x20\n      add\n      dup3\n      dup1\n      sload\n      tag_35\n      swap1\n      tag_34\n      jump\t// in\n    tag_35:\n      dup1\n      iszero\n      tag_36\n      jumpi\n      dup1\n      0x1f\n      lt\n      tag_37\n      jumpi\n      0x0100\n      dup1\n      dup4\n      sload\n      div\n      mul\n      dup4\n      mstore\n      swap2\n      0x20\n      add\n      swap2\n      jump(tag_36)\n    tag_37:\n      dup3\n      add\n      swap2\n      swap1\n      0x00\n      mstore\n      keccak256(0x00, 0x20)\n      swap1\n    tag_38:\n      dup2\n      sload\n      dup2\n      mstore\n      swap1\n      0x01\n      add\n      swap1\n      0x20\n      add\n      dup1\n      dup4\n      gt\n      tag_38\n      jumpi\n      dup3\n      swap1\n      sub\n      0x1f\n      and\n      dup3\n      add\n      swap2\n    tag_36:\n      pop\n      pop\n      pop\n      pop\n      pop\n      dup2\n      jump\t// out\n        /* \"#utility.yul\":7:84   */\n    tag_39:\n        /* \"#utility.yul\":44:51   */\n      0x00\n        /* \"#utility.yul\":73:78   */\n      dup2\n        /* \"#utility.yul\":62:78   */\n      swap1\n      pop\n        /* \"#utility.yul\":7:84   */\n      swap2\n      swap1\n      pop\n      jump\t// out\n        /* \"#utility.yul\":90:208   */\n    tag_40:\n        /* \"#utility.yul\":177:201   */\n      tag_75\n        /* \"#utility.yul\":195:200   */\n      dup2\n        /* \"#utility.yul\":177:201   */\n      tag_39\n      jump\t// in\n    tag_75:\n        /* \"#utility.yul\":172:175   */\n      dup3\n        /* \"#utility.yul\":165:202   */\n      mstore\n        /* \"#utility.yul\":90:208   */\n      pop\n      pop\n      jump\t// out\n        /* \"#utility.yul\":214:436   */\n    tag_11:\n        /* \"#utility.yul\":307:311   */\n      0x00\n        /* \"#utility.yul\":345:347   */\n      0x20\n        /* \"#utility.yul\":334:343   */\n      dup3\n        /* \"#utility.yul\":330:348   */\n      add\n        /* \"#utility.yul\":322:348   */\n      swap1\n      pop\n        /* \"#utility.yul\":358:429   */\n      tag_77\n        /* \"#utility.yul\":426:427   */\n      0x00\n        /* \"#utility.yul\":415:424   */\n      dup4\n        /* \"#utility.yul\":411:428   */\n      add\n        /* \"#utility.yul\":402:408   */\n      dup5\n        /* \"#utility.yul\":358:429   */\n      tag_40\n      jump\t// in\n    tag_77:\n        /* \"#utility.yul\":214:436   */\n      swap3\n      swap2\n      pop\n      pop\n      jump\t// out\n        /* \"#utility.yul\":523:640   */\n    tag_42:\n        /* \"#utility.yul\":632:633   */\n      0x00\n        /* \"#utility.yul\":629:630   */\n      0x00\n        /* \"#utility.yul\":622:634   */\n      revert\n        /* \"#utility.yul\":769:891   */\n    tag_44:\n        /* \"#utility.yul\":842:866   */\n      tag_82\n        /* \"#utility.yul\":860:865   */\n      dup2\n        /* \"#utility.yul\":842:866   */\n      tag_39\n      jump\t// in\n    tag_82:\n        /* \"#utility.yul\":835:840   */\n      dup2\n        /* \"#utility.yul\":832:867   */\n      eq\n        /* \"#utility.yul\":822:885   */\n      tag_83\n      jumpi\n        /* \"#utility.yul\":881:882   */\n      0x00\n        /* \"#utility.yul\":878:879   */\n      0x00\n        /* \"#utility.yul\":871:883   */\n      revert\n        /* \"#utility.yul\":822:885   */\n    tag_83:\n        /* \"#utility.yul\":769:891   */\n      pop\n      jump\t// out\n        /* \"#utility.yul\":897:1036   */\n    tag_45:\n        /* \"#utility.yul\":943:948   */\n      0x00\n        /* \"#utility.yul\":981:987   */\n      dup2\n        /* \"#utility.yul\":968:988   */\n      calldataload\n        /* \"#utility.yul\":959:988   */\n      swap1\n      pop\n        /* \"#utility.yul\":997:1030   */\n      tag_85\n        /* \"#utility.yul\":1024:1029   */\n      dup2\n        /* \"#utility.yul\":997:1030   */\n      tag_44\n      jump\t// in\n    tag_85:\n        /* \"#utility.yul\":897:1036   */\n      swap3\n      swap2\n      pop\n      pop\n      jump\t// out\n        /* \"#utility.yul\":1042:1371   */\n    tag_18:\n        /* \"#utility.yul\":1101:1107   */\n      0x00\n        /* \"#utility.yul\":1150:1152   */\n      0x20\n        /* \"#utility.yul\":1138:1147   */\n      dup3\n        /* \"#utility.yul\":1129:1136   */\n      dup5\n        /* \"#utility.yul\":1125:1148   */\n      sub\n        /* \"#utility.yul\":1121:1153   */\n      slt\n        /* \"#utility.yul\":1118:1237   */\n      iszero\n      tag_87\n      jumpi\n        /* \"#utility.yul\":1156:1235   */\n      tag_88\n      tag_42\n      jump\t// in\n    tag_88:\n        /* \"#utility.yul\":1118:1237   */\n    tag_87:\n        /* \"#utility.yul\":1276:1277   */\n      0x00\n        /* \"#utility.yul\":1301:1354   */\n      tag_89\n        /* \"#utility.yul\":1346:1353   */\n      dup5\n        /* \"#utility.yul\":1337:1343   */\n      dup3\n        /* \"#utility.yul\":1326:1335   */\n      dup6\n        /* \"#utility.yul\":1322:1344   */\n      add\n        /* \"#utility.yul\":1301:1354   */\n      tag_45\n      jump\t// in\n    tag_89:\n        /* \"#utility.yul\":1291:1354   */\n      swap2\n      pop\n        /* \"#utility.yul\":1247:1364   */\n      pop\n        /* \"#utility.yul\":1042:1371   */\n      swap3\n      swap2\n      pop\n      pop\n      jump\t// out\n        /* \"#utility.yul\":1377:1503   */\n    tag_46:\n        /* \"#utility.yul\":1414:1421   */\n      0x00\n        /* \"#utility.yul\":1454:1496   */\n      0xffffffffffffffffffffffffffffffffffffffff\n        /* \"#utility.yul\":1447:1452   */\n      dup3\n        /* \"#utility.yul\":1443:1497   */\n      and\n        /* \"#utility.yul\":1432:1497   */\n      swap1\n      pop\n        /* \"#utility.yul\":1377:1503   */\n      swap2\n      swap1\n      pop\n      jump\t// out\n        /* \"#utility.yul\":1509:1605   */\n    tag_47:\n        /* \"#utility.yul\":1546:1553   */\n      0x00\n        /* \"#utility.yul\":1575:1599   */\n      tag_92\n        /* \"#utility.yul\":1593:1598   */\n      dup3\n        /* \"#utility.yul\":1575:1599   */\n      tag_46\n      jump\t// in\n    tag_92:\n        /* \"#utility.yul\":1564:1599   */\n      swap1\n      pop\n        /* \"#utility.yul\":1509:1605   */\n      swap2\n      swap1\n      pop\n      jump\t// out\n        /* \"#utility.yul\":1611:1729   */\n    tag_48:\n        /* \"#utility.yul\":1698:1722   */\n      tag_94\n        /* \"#utility.yul\":1716:1721   */\n      dup2\n        /* \"#utility.yul\":1698:1722   */\n      tag_47\n      jump\t// in\n    tag_94:\n        /* \"#utility.yul\":1693:1696   */\n      dup3\n        /* \"#utility.yul\":1686:1723   */\n      mstore\n        /* \"#utility.yul\":1611:1729   */\n      pop\n      pop\n      jump\t// out\n        /* \"#utility.yul\":1735:1957   */\n    tag_24:\n        /* \"#utility.yul\":1828:1832   */\n      0x00\n        /* \"#utility.yul\":1866:1868   */\n      0x20\n        /* \"#utility.yul\":1855:1864   */\n      dup3\n        /* \"#utility.yul\":1851:1869   */\n      add\n        /* \"#utility.yul\":1843:1869   */\n      swap1\n      pop\n        /* \"#utility.yul\":1879:1950   */\n      tag_96\n        /* \"#utility.yul\":1947:1948   */\n      0x00\n        /* \"#utility.yul\":1936:1945   */\n      dup4\n        /* \"#utility.yul\":1932:1949   */\n      add\n        /* \"#utility.yul\":1923:1929   */\n      dup5\n        /* \"#utility.yul\":1879:1950   */\n      tag_48\n      jump\t// in\n    tag_96:\n        /* \"#utility.yul\":1735:1957   */\n      swap3\n      swap2\n      pop\n      pop\n      jump\t// out\n        /* \"#utility.yul\":1963:2061   */\n    tag_49:\n        /* \"#utility.yul\":2014:2020   */\n      0x00\n        /* \"#utility.yul\":2048:2053   */\n      dup2\n        /* \"#utility.yul\":2042:2054   */\n      mload\n        /* \"#utility.yul\":2032:2054   */\n      swap1\n      pop\n        /* \"#utility.yul\":1963:2061   */\n      swap2\n      swap1\n      pop\n      jump\t// out\n        /* \"#utility.yul\":2067:2235   */\n    tag_50:\n        /* \"#utility.yul\":2150:2161   */\n      0x00\n        /* \"#utility.yul\":2184:2190   */\n      dup3\n        /* \"#utility.yul\":2179:2182   */\n      dup3\n        /* \"#utility.yul\":2172:2191   */\n      mstore\n        /* \"#utility.yul\":2224:2228   */\n      0x20\n        /* \"#utility.yul\":2219:2222   */\n      dup3\n        /* \"#utility.yul\":2215:2229   */\n      add\n        /* \"#utility.yul\":2200:2229   */\n      swap1\n      pop\n        /* \"#utility.yul\":2067:2235   */\n      swap3\n      swap2\n      pop\n      pop\n      jump\t// out\n        /* \"#utility.yul\":2241:2380   */\n    tag_51:\n        /* \"#utility.yul\":2330:2336   */\n      dup3\n        /* \"#utility.yul\":2325:2328   */\n      dup2\n        /* \"#utility.yul\":2320:2323   */\n      dup4\n        /* \"#utility.yul\":2314:2337   */\n      mcopy\n        /* \"#utility.yul\":2371:2372   */\n      0x00\n        /* \"#utility.yul\":2362:2368   */\n      dup4\n        /* \"#utility.yul\":2357:2360   */\n      dup4\n        /* \"#utility.yul\":2353:2369   */\n      add\n        /* \"#utility.yul\":2346:2373   */\n      mstore\n        /* \"#utility.yul\":2241:2380   */\n      pop\n      pop\n      pop\n      jump\t// out\n        /* \"#utility.yul\":2386:2488   */\n    tag_52:\n        /* \"#utility.yul\":2427:2433   */\n      0x00\n        /* \"#utility.yul\":2478:2480   */\n      0x1f\n        /* \"#utility.yul\":2474:2481   */\n      not\n        /* \"#utility.yul\":2469:2471   */\n      0x1f\n        /* \"#utility.yul\":2462:2467   */\n      dup4\n        /* \"#utility.yul\":2458:2472   */\n      add\n        /* \"#utility.yul\":2454:2482   */\n      and\n        /* \"#utility.yul\":2444:2482   */\n      swap1\n      pop\n        /* \"#utility.yul\":2386:2488   */\n      swap2\n      swap1\n      pop\n      jump\t// out\n        /* \"#utility.yul\":2494:2867   */\n    tag_53:\n        /* \"#utility.yul\":2580:2583   */\n      0x00\n        /* \"#utility.yul\":2608:2646   */\n      tag_102\n        /* \"#utility.yul\":2640:2645   */\n      dup3\n        /* \"#utility.yul\":2608:2646   */\n      tag_49\n      jump\t// in\n    tag_102:\n        /* \"#utility.yul\":2662:2732   */\n      tag_103\n        /* \"#utility.yul\":2725:2731   */\n      dup2\n        /* \"#utility.yul\":2720:2723   */\n      dup6\n        /* \"#utility.yul\":2662:2732   */\n      tag_50\n      jump\t// in\n    tag_103:\n        /* \"#utility.yul\":2655:2732   */\n      swap4\n      pop\n        /* \"#utility.yul\":2741:2806   */\n      tag_104\n        /* \"#utility.yul\":2799:2805   */\n      dup2\n        /* \"#utility.yul\":2794:2797   */\n      dup6\n        /* \"#utility.yul\":2787:2791   */\n      0x20\n        /* \"#utility.yul\":2780:2785   */\n      dup7\n        /* \"#utility.yul\":2776:2792   */\n      add\n        /* \"#utility.yul\":2741:2806   */\n      tag_51\n      jump\t// in\n    tag_104:\n        /* \"#utility.yul\":2831:2860   */\n      tag_105\n        /* \"#utility.yul\":2853:2859   */\n      dup2\n        /* \"#utility.yul\":2831:2860   */\n      tag_52\n      jump\t// in\n    tag_105:\n        /* \"#utility.yul\":2826:2829   */\n      dup5\n        /* \"#utility.yul\":2822:2861   */\n      add\n        /* \"#utility.yul\":2815:2861   */\n      swap2\n      pop\n        /* \"#utility.yul\":2584:2867   */\n      pop\n        /* \"#utility.yul\":2494:2867   */\n      swap3\n      swap2\n      pop\n      pop\n      jump\t// out\n        /* \"#utility.yul\":2873:3182   */\n    tag_29:\n        /* \"#utility.yul\":2984:2988   */\n      0x00\n        /* \"#utility.yul\":3022:3024   */\n      0x20\n        /* \"#utility.yul\":3011:3020   */\n      dup3\n        /* \"#utility.yul\":3007:3025   */\n      add\n        /* \"#utility.yul\":2999:3025   */\n      swap1\n      pop\n        /* \"#utility.yul\":3071:3080   */\n      dup2\n        /* \"#utility.yul\":3065:3069   */\n      dup2\n        /* \"#utility.yul\":3061:3081   */\n      sub\n        /* \"#utility.yul\":3057:3058   */\n      0x00\n        /* \"#utility.yul\":3046:3055   */\n      dup4\n        /* \"#utility.yul\":3042:3059   */\n      add\n        /* \"#utility.yul\":3035:3082   */\n      mstore\n        /* \"#utility.yul\":3099:3175   */\n      tag_107\n        /* \"#utility.yul\":3170:3174   */\n      dup2\n        /* \"#utility.yul\":3161:3167   */\n      dup5\n        /* \"#utility.yul\":3099:3175   */\n      tag_53\n      jump\t// in\n    tag_107:\n        /* \"#utility.yul\":3091:3175   */\n      swap1\n      pop\n        /* \"#utility.yul\":2873:3182   */\n      swap3\n      swap2\n      pop\n      pop\n      jump\t// out\n        /* \"#utility.yul\":3188:3284   */\n    tag_54:\n        /* \"#utility.yul\":3246:3252   */\n      0x00\n        /* \"#utility.yul\":3274:3277   */\n      dup3\n        /* \"#utility.yul\":3264:3277   */\n      swap1\n      pop\n        /* \"#utility.yul\":3188:3284   */\n      swap3\n      swap2\n      pop\n      pop\n      jump\t// out\n        /* \"#utility.yul\":3290:3470   */\n    tag_55:\n        /* \"#utility.yul\":3338:3415   */\n      0x4e487b7100000000000000000000000000000000000000000000000000000000\n        /* \"#utility.yul\":3335:3336   */\n      0x00\n        /* \"#utility.yul\":3328:3416   */\n      mstore\n        /* \"#utility.yul\":3435:3439   */\n      0x41\n        /* \"#utility.yul\":3432:3433   */\n      0x04\n        /* \"#utility.yul\":3425:3440   */\n      mstore\n        /* \"#utility.yul\":3459:3463   */\n      0x24\n        /* \"#utility.yul\":3456:3457   */\n      0x00\n        /* \"#utility.yul\":3449:3464   */\n      revert\n        /* \"#utility.yul\":3476:3656   */\n    tag_56:\n        /* \"#utility.yul\":3524:3601   */\n      0x4e487b7100000000000000000000000000000000000000000000000000000000\n        /* \"#utility.yul\":3521:3522   */\n      0x00\n        /* \"#utility.yul\":3514:3602   */\n      mstore\n        /* \"#utility.yul\":3621:3625   */\n      0x22\n        /* \"#utility.yul\":3618:3619   */\n      0x04\n        /* \"#utility.yul\":3611:3626   */\n      mstore\n        /* \"#utility.yul\":3645:3649   */\n      0x24\n        /* \"#utility.yul\":3642:3643   */\n      0x00\n        /* \"#utility.yul\":3635:3650   */\n      revert\n        /* \"#utility.yul\":3662:3982   */\n    tag_34:\n        /* \"#utility.yul\":3706:3712   */\n      0x00\n        /* \"#utility.yul\":3743:3744   */\n      0x02\n        /* \"#utility.yul\":3737:3741   */\n      dup3\n        /* \"#utility.yul\":3733:3745   */\n      div\n        /* \"#utility.yul\":3723:3745   */\n      swap1\n      pop\n        /* \"#utility.yul\":3790:3791   */\n      0x01\n        /* \"#utility.yul\":3784:3788   */\n      dup3\n        /* \"#utility.yul\":3780:3792   */\n      and\n        /* \"#utility.yul\":3811:3829   */\n      dup1\n        /* \"#utility.yul\":3801:3882   */\n      tag_112\n      jumpi\n        /* \"#utility.yul\":3867:3871   */\n      0x7f\n        /* \"#utility.yul\":3859:3865   */\n      dup3\n        /* \"#utility.yul\":3855:3872   */\n      and\n        /* \"#utility.yul\":3845:3872   */\n      swap2\n      pop\n        /* \"#utility.yul\":3801:3882   */\n    tag_112:\n        /* \"#utility.yul\":3929:3931   */\n      0x20\n        /* \"#utility.yul\":3921:3927   */\n      dup3\n        /* \"#utility.yul\":3918:3932   */\n      lt\n        /* \"#utility.yul\":3898:3916   */\n      dup2\n        /* \"#utility.yul\":3895:3933   */\n      sub\n        /* \"#utility.yul\":3892:3976   */\n      tag_113\n      jumpi\n        /* \"#utility.yul\":3948:3966   */\n      tag_114\n      tag_56\n      jump\t// in\n    tag_114:\n        /* \"#utility.yul\":3892:3976   */\n    tag_113:\n        /* \"#utility.yul\":3713:3982   */\n      pop\n        /* \"#utility.yul\":3662:3982   */\n      swap2\n      swap1\n      pop\n      jump\t// out\n        /* \"#utility.yul\":3988:4128   */\n    tag_57:\n        /* \"#utility.yul\":4036:4040   */\n      0x00\n        /* \"#utility.yul\":4059:4062   */\n      dup2\n        /* \"#utility.yul\":4051:4062   */\n      swap1\n      pop\n        /* \"#utility.yul\":4082:4085   */\n      dup2\n        /* \"#utility.yul\":4079:4080   */\n      0x00\n        /* \"#utility.yul\":4072:4086   */\n      mstore\n        /* \"#utility.yul\":4116:4120   */\n      0x20\n        /* \"#utility.yul\":4113:4114   */\n      0x00\n        /* \"#utility.yul\":4103:4121   */\n      keccak256\n        /* \"#utility.yul\":4095:4121   */\n      swap1\n      pop\n        /* \"#utility.yul\":3988:4128   */\n      swap2\n      swap1\n      pop\n      jump\t// out\n        /* \"#utility.yul\":4134:4227   */\n    tag_58:\n        /* \"#utility.yul\":4171:4177   */\n      0x00\n        /* \"#utility.yul\":4218:4220   */\n      0x20\n        /* \"#utility.yul\":4213:4215   */\n      0x1f\n        /* \"#utility.yul\":4206:4211   */\n      dup4\n        /* \"#utility.yul\":4202:4216   */\n      add\n        /* \"#utility.yul\":4198:4221   */\n      div\n        /* \"#utility.yul\":4188:4221   */\n      swap1\n      pop\n        /* \"#utility.yul\":4134:4227   */\n      swap2\n      swap1\n      pop\n      jump\t// out\n        /* \"#utility.yul\":4233:4340   */\n    tag_59:\n        /* \"#utility.yul\":4277:4285   */\n      0x00\n        /* \"#utility.yul\":4327:4332   */\n      dup3\n        /* \"#utility.yul\":4321:4325   */\n      dup3\n        /* \"#utility.yul\":4317:4333   */\n      shl\n        /* \"#utility.yul\":4296:4333   */\n      swap1\n      pop\n        /* \"#utility.yul\":4233:4340   */\n      swap3\n      swap2\n      pop\n      pop\n      jump\t// out\n        /* \"#utility.yul\":4346:4739   */\n    tag_60:\n        /* \"#utility.yul\":4415:4421   */\n      0x00\n        /* \"#utility.yul\":4465:4466   */\n      0x08\n        /* \"#utility.yul\":4453:4463   */\n      dup4\n        /* \"#utility.yul\":4449:4467   */\n      mul\n        /* \"#utility.yul\":4488:4585   */\n      tag_119\n        /* \"#utility.yul\":4518:4584   */\n      0xffffffffffffffffffffffffffffffffffffffffffffffffffffffffffffffff\n        /* \"#utility.yul\":4507:4516   */\n      dup3\n        /* \"#utility.yul\":4488:4585   */\n      tag_59\n      jump\t// in\n    tag_119:\n        /* \"#utility.yul\":4606:4645   */\n      tag_120\n        /* \"#utility.yul\":4636:4644   */\n      dup7\n        /* \"#utility.yul\":4625:4634   */\n      dup4\n        /* \"#utility.yul\":4606:4645   */\n      tag_59\n      jump\t// in\n    tag_120:\n        /* \"#utility.yul\":4594:4645   */\n      swap6\n      pop\n        /* \"#utility.yul\":4678:4682   */\n      dup1\n        /* \"#utility.yul\":4674:4683   */\n      not\n        /* \"#utility.yul\":4667:4672   */\n      dup5\n        /* \"#utility.yul\":4663:4684   */\n      and\n        /* \"#utility.yul\":4654:4684   */\n      swap4\n      pop\n        /* \"#utility.yul\":4727:4731   */\n      dup1\n        /* \"#utility.yul\":4717:4725   */\n      dup7\n        /* \"#utility.yul\":4713:4732   */\n      and\n        /* \"#utility.yul\":4706:4711   */\n      dup5\n        /* \"#utility.yul\":4703:4733   */\n      or\n        /* \"#utility.yul\":4693:4733   */\n      swap3\n      pop\n        /* \"#utility.yul\":4422:4739   */\n      pop\n      pop\n        /* \"#utility.yul\":4346:4739   */\n      swap4\n      swap3\n      pop\n      pop\n      pop\n      jump\t// out\n        /* \"#utility.yul\":4745:4805   */\n    tag_61:\n        /* \"#utility.yul\":4773:4776   */\n      0x00\n        /* \"#utility.yul\":4794:4799   */\n      dup2\n        /* \"#utility.yul\":4787:4799   */\n      swap1\n      pop\n        /* \"#utility.yul\":4745:4805   */\n      swap2\n      swap1\n      pop\n      jump\t// out\n        /* \"#utility.yul\":4811:4953   */\n    tag_62:\n        /* \"#utility.yul\":4861:4870   */\n      0x00\n        /* \"#utility.yul\":4894:4947   */\n      tag_123\n        /* \"#utility.yul\":4912:4946   */\n      tag_124\n        /* \"#utility.yul\":4921:4945   */\n      tag_125\n        /* \"#utility.yul\":4939:4944   */\n      dup5\n        /* \"#utility.yul\":4921:4945   */\n      tag_39\n      jump\t// in\n    tag_125:\n        /* \"#utility.yul\":4912:4946   */\n      tag_61\n      jump\t// in\n    tag_124:\n        /* \"#utility.yul\":4894:4947   */\n      tag_39\n      jump\t// in\n    tag_123:\n        /* \"#utility.yul\":4881:4947   */\n      swap1\n      pop\n        /* \"#utility.yul\":4811:4953   */\n      swap2\n      swap1\n      pop\n      jump\t// out\n        /* \"#utility.yul\":4959:5034   */\n    tag_63:\n        /* \"#utility.yul\":5002:5005   */\n      0x00\n        /* \"#utility.yul\":5023:5028   */\n      dup2\n        /* \"#utility.yul\":5016:5028   */\n      swap1\n      pop\n        /* \"#utility.yul\":4959:5034   */\n      swap2\n      swap1\n      pop\n      jump\t// out\n        /* \"#utility.yul\":5040:5309   */\n    tag_64:\n        /* \"#utility.yul\":5150:5189   */\n      tag_128\n        /* \"#utility.yul\":5181:5188   */\n      dup4\n        /* \"#utility.yul\":5150:5189   */\n      tag_62\n      jump\t// in\n    tag_128:\n        /* \"#utility.yul\":5211:5302   */\n      tag_129\n        /* \"#utility.yul\":5260:5301   */\n      tag_130\n        /* \"#utility.yul\":5284:5300   */\n      dup3\n        /* \"#utility.yul\":5260:5301   */\n      tag_63\n      jump\t// in\n    tag_130:\n        /* \"#utility.yul\":5252:5258   */\n      dup5\n        /* \"#utility.yul\":5245:5249   */\n      dup5\n        /* \"#utility.yul\":5239:5250   */\n      sload\n        /* \"#utility.yul\":5211:5302   */\n      tag_60\n      jump\t// in\n    tag_129:\n        /* \"#utility.yul\":5205:5209   */\n      dup3\n        /* \"#utility.yul\":5198:5303   */\n      sstore\n        /* \"#utility.yul\":5116:5309   */\n      pop\n        /* \"#utility.yul\":5040:5309   */\n      pop\n      pop\n      pop\n      jump\t// out\n        /* \"#utility.yul\":5315:5388   */\n    tag_65:\n        /* \"#utility.yul\":5360:5363   */\n      0x00\n        /* \"#utility.yul\":5381:5382   */\n      0x00\n        /* \"#utility.yul\":5374:5382   */\n      swap1\n      pop\n        /* \"#utility.yul\":5315:5388   */\n      swap1\n      jump\t// out\n        /* \"#utility.yul\":5394:5583   */\n    tag_66:\n        /* \"#utility.yul\":5471:5503   */\n      tag_133\n      tag_65\n      jump\t// in\n    tag_133:\n        /* \"#utility.yul\":5512:5577   */\n      tag_134\n        /* \"#utility.yul\":5570:5576   */\n      dup2\n        /* \"#utility.yul\":5562:5568   */\n      dup5\n        /* \"#utility.yul\":5556:5560   */\n      dup5\n        /* \"#utility.yul\":5512:5577   */\n      tag_64\n      jump\t// in\n    tag_134:\n        /* \"#utility.yul\":5447:5583   */\n      pop\n        /* \"#utility.yul\":5394:5583   */\n      pop\n      pop\n      jump\t// out\n        /* \"#utility.yul\":5589:5775   */\n    tag_67:\n        /* \"#utility.yul\":5649:5769   */\n    tag_136:\n        /* \"#utility.yul\":5666:5669   */\n      dup2\n        /* \"#utility.yul\":5659:5664   */\n      dup2\n        /* \"#utility.yul\":5656:5670   */\n      lt\n        /* \"#utility.yul\":5649:5769   */\n      iszero\n      tag_138\n      jumpi\n        /* \"#utility.yul\":5720:5759   */\n      tag_139\n        /* \"#utility.yul\":5757:5758   */\n      0x00\n        /* \"#utility.yul\":5750:5755   */\n      dup3\n        /* \"#utility.yul\":5720:5759   */\n      tag_66\n      jump\t// in\n    tag_139:\n        /* \"#utility.yul\":5693:5694   */\n      0x01\n        /* \"#utility.yul\":5686:5691   */\n      dup2\n        /* \"#utility.yul\":5682:5695   */\n      add\n        /* \"#utility.yul\":5673:5695   */\n      swap1\n      pop\n        /* \"#utility.yul\":5649:5769   */\n      jump(tag_136)\n    tag_138:\n        /* \"#utility.yul\":5589:5775   */\n      pop\n      pop\n      jump\t// out\n        /* \"#utility.yul\":5781:6322   */\n    tag_68:\n        /* \"#utility.yul\":5881:5883   */\n      0x1f\n        /* \"#utility.yul\":5876:5879   */\n      dup3\n        /* \"#utility.yul\":5873:5884   */\n      gt\n        /* \"#utility.yul\":5870:6315   */\n      iszero\n      tag_141\n      jumpi\n        /* \"#utility.yul\":5915:5952   */\n      tag_142\n        /* \"#utility.yul\":5946:5951   */\n      dup2\n        /* \"#utility.yul\":5915:5952   */\n      tag_57\n      jump\t// in\n    tag_142:\n        /* \"#utility.yul\":5998:6027   */\n      tag_143\n        /* \"#utility.yul\":6016:6026   */\n      dup5\n        /* \"#utility.yul\":5998:6027   */\n      tag_58\n      jump\t// in\n    tag_143:\n        /* \"#utility.yul\":5988:5996   */\n      dup2\n        /* \"#utility.yul\":5984:6028   */\n      add\n        /* \"#utility.yul\":6181:6183   */\n      0x20\n        /* \"#utility.yul\":6169:6179   */\n      dup6\n        /* \"#utility.yul\":6166:6184   */\n      lt\n        /* \"#utility.yul\":6163:6212   */\n      iszero\n      tag_144\n      jumpi\n        /* \"#utility.yul\":6202:6210   */\n      dup2\n        /* \"#utility.yul\":6187:6210   */\n      swap1\n      pop\n        /* \"#utility.yul\":6163:6212   */\n    tag_144:\n        /* \"#utility.yul\":6225:6305   */\n      tag_145\n        /* \"#utility.yul\":6281:6303   */\n      tag_146\n        /* \"#utility.yul\":6299:6302   */\n      dup6\n        /* \"#utility.yul\":6281:6303   */\n      tag_58\n      jump\t// in\n    tag_146:\n        /* \"#utility.yul\":6271:6279   */\n      dup4\n        /* \"#utility.yul\":6267:6304   */\n      add\n        /* \"#utility.yul\":6254:6265   */\n      dup3\n        /* \"#utility.yul\":6225:6305   */\n      tag_67\n      jump\t// in\n    tag_145:\n        /* \"#utility.yul\":5885:6315   */\n      pop\n      pop\n        /* \"#utility.yul\":5870:6315   */\n    tag_141:\n        /* \"#utility.yul\":5781:6322   */\n      pop\n      pop\n      pop\n      jump\t// out\n        /* \"#utility.yul\":6328:6445   */\n    tag_69:\n        /* \"#utility.yul\":6382:6390   */\n      0x00\n        /* \"#utility.yul\":6432:6437   */\n      dup3\n        /* \"#utility.yul\":6426:6430   */\n      dup3\n        /* \"#utility.yul\":6422:6438   */\n      shr\n        /* \"#utility.yul\":6401:6438   */\n      swap1\n      pop\n        /* \"#utility.yul\":6328:6445   */\n      swap3\n      swap2\n      pop\n      pop\n      jump\t// out\n        /* \"#utility.yul\":6451:6620   */\n    tag_70:\n        /* \"#utility.yul\":6495:6501   */\n      0x00\n        /* \"#utility.yul\":6528:6579   */\n      tag_149\n        /* \"#utility.yul\":6576:6577   */\n      0x00\n        /* \"#utility.yul\":6572:6578   */\n      not\n        /* \"#utility.yul\":6564:6569   */\n      dup5\n        /* \"#utility.yul\":6561:6562   */\n      0x08\n        /* \"#utility.yul\":6557:6570   */\n      mul\n        /* \"#utility.yul\":6528:6579   */\n      tag_69\n      jump\t// in\n    tag_149:\n        /* \"#utility.yul\":6524:6580   */\n      not\n        /* \"#utility.yul\":6609:6613   */\n      dup1\n        /* \"#utility.yul\":6603:6607   */\n      dup4\n        /* \"#utility.yul\":6599:6614   */\n      and\n        /* \"#utility.yul\":6589:6614   */\n      swap2\n      pop\n        /* \"#utility.yul\":6502:6620   */\n      pop\n        /* \"#utility.yul\":6451:6620   */\n      swap3\n      swap2\n      pop\n      pop\n      jump\t// out\n        /* \"#utility.yul\":6625:6920   */\n    tag_71:\n        /* \"#utility.yul\":6701:6705   */\n      0x00\n        /* \"#utility.yul\":6847:6876   */\n      tag_151\n        /* \"#utility.yul\":6872:6875   */\n      dup4\n        /* \"#utility.yul\":6866:6870   */\n      dup4\n        /* \"#utility.yul\":6847:6876   */\n      tag_70\n      jump\t// in\n    tag_151:\n        /* \"#utility.yul\":6839:6876   */\n      swap2\n      pop\n        /* \"#utility.yul\":6909:6912   */\n      dup3\n        /* \"#utility.yul\":6906:6907   */\n      0x02\n        /* \"#utility.yul\":6902:6913   */\n      mul\n        /* \"#utility.yul\":6896:6900   */\n      dup3\n        /* \"#utility.yul\":6893:6914   */\n      or\n        /* \"#utility.yul\":6885:6914   */\n      swap1\n      pop\n        /* \"#utility.yul\":6625:6920   */\n      swap3\n      swap2\n      pop\n      pop\n      jump\t// out\n        /* \"#utility.yul\":6925:8323   */\n    tag_32:\n        /* \"#utility.yul\":7047:7090   */\n      tag_153\n        /* \"#utility.yul\":7086:7089   */\n      dup4\n        /* \"#utility.yul\":7081:7084   */\n      dup4\n        /* \"#utility.yul\":7047:7090   */\n      tag_54\n      jump\t// in\n    tag_153:\n        /* \"#utility.yul\":7155:7173   */\n      0xffffffffffffffff\n        /* \"#utility.yul\":7147:7153   */\n      dup2\n        /* \"#utility.yul\":7144:7174   */\n      gt\n        /* \"#utility.yul\":7141:7197   */\n      iszero\n      tag_154\n      jumpi\n        /* \"#utility.yul\":7177:7195   */\n      tag_155\n      tag_55\n      jump\t// in\n    tag_155:\n        /* \"#utility.yul\":7141:7197   */\n    tag_154:\n        /* \"#utility.yul\":7221:7259   */\n      tag_156\n        /* \"#utility.yul\":7253:7257   */\n      dup3\n        /* \"#utility.yul\":7247:7258   */\n      sload\n        /* \"#utility.yul\":7221:7259   */\n      tag_34\n      jump\t// in\n    tag_156:\n        /* \"#utility.yul\":7306:7372   */\n      tag_157\n        /* \"#utility.yul\":7365:7371   */\n      dup3\n        /* \"#utility.yul\":7357:7363   */\n      dup3\n        /* \"#utility.yul\":7351:7355   */\n      dup6\n        /* \"#utility.yul\":7306:7372   */\n      tag_68\n      jump\t// in\n    tag_157:\n        /* \"#utility.yul\":7399:7400   */\n      0x00\n        /* \"#utility.yul\":7428:7430   */\n      0x1f\n        /* \"#utility.yul\":7420:7426   */\n      dup4\n        /* \"#utility.yul\":7417:7431   */\n      gt\n        /* \"#utility.yul\":7445:7446   */\n      0x01\n        /* \"#utility.yul\":7440:8071   */\n      dup2\n      eq\n      tag_159\n      jumpi\n        /* \"#utility.yul\":8115:8116   */\n      0x00\n        /* \"#utility.yul\":8132:8138   */\n      dup5\n        /* \"#utility.yul\":8129:8213   */\n      iszero\n      tag_160\n      jumpi\n        /* \"#utility.yul\":8188:8197   */\n      dup3\n        /* \"#utility.yul\":8183:8186   */\n      dup8\n        /* \"#utility.yul\":8179:8198   */\n      add\n        /* \"#utility.yul\":8166:8199   */\n      calldataload\n        /* \"#utility.yul\":8157:8199   */\n      swap1\n      pop\n        /* \"#utility.yul\":8129:8213   */\n    tag_160:\n        /* \"#utility.yul\":8239:8306   */\n      tag_161\n        /* \"#utility.yul\":8299:8305   */\n      dup6\n        /* \"#utility.yul\":8292:8297   */\n      dup3\n        /* \"#utility.yul\":8239:8306   */\n      tag_71\n      jump\t// in\n    tag_161:\n        /* \"#utility.yul\":8233:8237   */\n      dup7\n        /* \"#utility.yul\":8226:8307   */\n      sstore\n        /* \"#utility.yul\":8088:8317   */\n      pop\n        /* \"#utility.yul\":7410:8317   */\n      jump(tag_158)\n        /* \"#utility.yul\":7440:8071   */\n    tag_159:\n        /* \"#utility.yul\":7492:7496   */\n      0x1f\n        /* \"#utility.yul\":7488:7497   */\n      not\n        /* \"#utility.yul\":7480:7486   */\n      dup5\n        /* \"#utility.yul\":7476:7498   */\n      and\n        /* \"#utility.yul\":7526:7562   */\n      tag_162\n        /* \"#utility.yul\":7557:7561   */\n      dup7\n        /* \"#utility.yul\":7526:7562   */\n      tag_57\n      jump\t// in\n    tag_162:\n        /* \"#utility.yul\":7584:7585   */\n      0x00\n        /* \"#utility.yul\":7598:7813   */\n    tag_163:\n        /* \"#utility.yul\":7612:7619   */\n      dup3\n        /* \"#utility.yul\":7609:7610   */\n      dup2\n        /* \"#utility.yul\":7606:7620   */\n      lt\n        /* \"#utility.yul\":7598:7813   */\n      iszero\n      tag_165\n      jumpi\n        /* \"#utility.yul\":7698:7707   */\n      dup5\n        /* \"#utility.yul\":7693:7696   */\n      dup10\n        /* \"#utility.yul\":7689:7708   */\n      add\n        /* \"#utility.yul\":7676:7709   */\n      calldataload\n        /* \"#utility.yul\":7668:7674   */\n      dup3\n        /* \"#utility.yul\":7661:7710   */\n      sstore\n        /* \"#utility.yul\":7749:7750   */\n      0x01\n        /* \"#utility.yul\":7741:7747   */\n      dup3\n        /* \"#utility.yul\":7737:7751   */\n      add\n        /* \"#utility.yul\":7727:7751   */\n      swap2\n      pop\n        /* \"#utility.yul\":7796:7798   */\n      0x20\n        /* \"#utility.yul\":7785:7794   */\n      dup6\n        /* \"#utility.yul\":7781:7799   */\n      add\n        /* \"#utility.yul\":7768:7799   */\n      swap5\n      pop\n        /* \"#utility.yul\":7635:7639   */\n      0x20\n        /* \"#utility.yul\":7632:7633   */\n      dup2\n        /* \"#utility.yul\":7628:7640   */\n      add\n        /* \"#utility.yul\":7623:7640   */\n      swap1\n      pop\n        /* \"#utility.yul\":7598:7813   */\n      jump(tag_163)\n    tag_165:\n        /* \"#utility.yul\":7841:7847   */\n      dup7\n        /* \"#utility.yul\":7832:7839   */\n      dup4\n        /* \"#utility.yul\":7829:7848   */\n      lt\n        /* \"#utility.yul\":7826:8012   */\n      iszero\n      tag_166\n      jumpi\n        /* \"#utility.yul\":7906:7915   */\n      dup5\n        /* \"#utility.yul\":7901:7904   */\n      dup10\n        /* \"#utility.yul\":7897:7916   */\n      add\n        /* \"#utility.yul\":7884:7917   */\n      calldataload\n        /* \"#utility.yul\":7949:7997   */\n      tag_167\n        /* \"#utility.yul\":7991:7995   */\n      0x1f\n        /* \"#utility.yul\":7983:7989   */\n      dup10\n        /* \"#utility.yul\":7979:7996   */\n      and\n        /* \"#utility.yul\":7968:7977   */\n      dup3\n        /* \"#utility.yul\":7949:7997   */\n      tag_70\n      jump\t// in\n    tag_167:\n        /* \"#utility.yul\":7941:7947   */\n      dup4\n        /* \"#utility.yul\":7934:7998   */\n      sstore\n        /* \"#utility.yul\":7849:8012   */\n      pop\n        /* \"#utility.yul\":7826:8012   */\n    tag_166:\n        /* \"#utility.yul\":8058:8059   */\n      0x01\n        /* \"#utility.yul\":8054:8055   */\n      0x02\n        /* \"#utility.yul\":8046:8052   */\n      dup9\n        /* \"#utility.yul\":8042:8056   */\n      mul\n        /* \"#utility.yul\":8038:8060   */\n      add\n        /* \"#utility.yul\":8032:8036   */\n      dup9\n        /* \"#utility.yul\":8025:8061   */\n      sstore\n        /* \"#utility.yul\":7447:8071   */\n      pop\n      pop\n      pop\n        /* \"#utility.yul\":7410:8317   */\n    tag_158:\n      pop\n        /* \"#utility.yul\":7022:8323   */\n      pop\n      pop\n      pop\n        /* \"#utility.yul\":6925:8323   */\n      pop\n      pop\n      pop\n      jump\t// out\n\n    auxdata: 0xa2646970667358221220d3b3f142e942a267c0540b8a723da5be6854a2da9e438cec64f8789373a1f15364736f6c634300081e0033\n}\n",
				"bytecode": {
					"linkReferences": {},
					"object": "6080604052348015600e575f5ffd5b506106d88061001c5f395ff3fe608060405260043610610049575f3560e01c80630c55699c1461004d5780633fa4f245146100775780636466414b146100a157806367e404ce146100bd57806373d4a13a146100e7575b5f5ffd5b348015610058575f5ffd5b50610061610111565b60405161006e9190610247565b60405180910390f35b348015610082575f5ffd5b5061008b610116565b6040516100989190610247565b60405180910390f35b6100bb60048036038101906100b6919061028e565b61011c565b005b3480156100c8575f5ffd5b506100d161017e565b6040516100de91906102f8565b60405180910390f35b3480156100f2575f5ffd5b506100fb6101a3565b6040516101089190610381565b60405180910390f35b5f5481565b60025481565b805f819055503360015f6101000a81548173ffffffffffffffffffffffffffffffffffffffff021916908373ffffffffffffffffffffffffffffffffffffffff160217905550346002819055505f366003918261017a9291906105d5565b5050565b60015f9054906101000a900473ffffffffffffffffffffffffffffffffffffffff1681565b600380546101b090610405565b80601f01602080910402602001604051908101604052809291908181526020018280546101dc90610405565b80156102275780601f106101fe57610100808354040283529160200191610227565b820191905f5260205f20905b81548152906001019060200180831161020a57829003601f168201915b505050505081565b5f819050919050565b6102418161022f565b82525050565b5f60208201905061025a5f830184610238565b92915050565b5f5ffd5b61026d8161022f565b8114610277575f5ffd5b50565b5f8135905061028881610264565b92915050565b5f602082840312156102a3576102a2610260565b5b5f6102b08482850161027a565b91505092915050565b5f73ffffffffffffffffffffffffffffffffffffffff82169050919050565b5f6102e2826102b9565b9050919050565b6102f2816102d8565b82525050565b5f60208201905061030b5f8301846102e9565b92915050565b5f81519050919050565b5f82825260208201905092915050565b8281835e5f83830152505050565b5f601f19601f8301169050919050565b5f61035382610311565b61035d818561031b565b935061036d81856020860161032b565b61037681610339565b840191505092915050565b5f6020820190508181035f8301526103998184610349565b905092915050565b5f82905092915050565b7f4e487b71000000000000000000000000000000000000000000000000000000005f52604160045260245ffd5b7f4e487b71000000000000000000000000000000000000000000000000000000005f52602260045260245ffd5b5f600282049050600182168061041c57607f821691505b60208210810361042f5761042e6103d8565b5b50919050565b5f819050815f5260205f209050919050565b5f6020601f8301049050919050565b5f82821b905092915050565b5f600883026104917fffffffffffffffffffffffffffffffffffffffffffffffffffffffffffffffff82610456565b61049b8683610456565b95508019841693508086168417925050509392505050565b5f819050919050565b5f6104d66104d16104cc8461022f565b6104b3565b61022f565b9050919050565b5f819050919050565b6104ef836104bc565b6105036104fb826104dd565b848454610462565b825550505050565b5f5f905090565b61051a61050b565b6105258184846104e6565b505050565b5b818110156105485761053d5f82610512565b60018101905061052b565b5050565b601f82111561058d5761055e81610435565b61056784610447565b81016020851015610576578190505b61058a61058285610447565b83018261052a565b50505b505050565b5f82821c905092915050565b5f6105ad5f1984600802610592565b1980831691505092915050565b5f6105c5838361059e565b9150826002028217905092915050565b6105df83836103a1565b67ffffffffffffffff8111156105f8576105f76103ab565b5b6106028254610405565b61060d82828561054c565b5f601f83116001811461063a575f8415610628578287013590505b61063285826105ba565b865550610699565b601f19841661064886610435565b5f5b8281101561066f5784890135825560018201915060208501945060208101905061064a565b8683101561068c5784890135610688601f89168261059e565b8355505b6001600288020188555050505b5050505050505056fea2646970667358221220d3b3f142e942a267c0540b8a723da5be6854a2da9e438cec64f8789373a1f15364736f6c634300081e0033",
					"opcodes": "PUSH1 0x80 PUSH1 0x40 MSTORE CALLVALUE DUP1 ISZERO PUSH1 0xE JUMPI PUSH0 PUSH0 REVERT JUMPDEST POP PUSH2 0x6D8 DUP1 PUSH2 0x1C PUSH0 CODECOPY PUSH0 RETURN INVALID PUSH1 0x80 PUSH1 0x40 MSTORE PUSH1 0x4 CALLDATASIZE LT PUSH2 0x49 JUMPI PUSH0 CALLDATALOAD PUSH1 0xE0 SHR DUP1 PUSH4 0xC55699C EQ PUSH2 0x4D JUMPI DUP1 PUSH4 0x3FA4F245 EQ PUSH2 0x77 JUMPI DUP1 PUSH4 0x6466414B EQ PUSH2 0xA1 JUMPI DUP1 PUSH4 0x67E404CE EQ PUSH2 0xBD JUMPI DUP1 PUSH4 0x73D4A13A EQ PUSH2 0xE7 JUMPI JUMPDEST PUSH0 PUSH0 REVERT JUMPDEST CALLVALUE DUP1 ISZERO PUSH2 0x58 JUMPI PUSH0 PUSH0 REVERT JUMPDEST POP PUSH2 0x61 PUSH2 0x111 JUMP JUMPDEST PUSH1 0x40 MLOAD PUSH2 0x6E SWAP2 SWAP1 PUSH2 0x247 JUMP JUMPDEST PUSH1 0x40 MLOAD DUP1 SWAP2 SUB SWAP1 RETURN JUMPDEST CALLVALUE DUP1 ISZERO PUSH2 0x82 JUMPI PUSH0 PUSH0 REVERT JUMPDEST POP PUSH2 0x8B PUSH2 0x116 JUMP JUMPDEST PUSH1 0x40 MLOAD PUSH2 0x98 SWAP2 SWAP1 PUSH2 0x247 JUMP JUMPDEST PUSH1 0x40 MLOAD DUP1 SWAP2 SUB SWAP1 RETURN JUMPDEST PUSH2 0xBB PUSH1 0x4 DUP1 CALLDATASIZE SUB DUP2 ADD SWAP1 PUSH2 0xB6 SWAP2 SWAP1 PUSH2 0x28E JUMP JUMPDEST PUSH2 0x11C JUMP JUMPDEST STOP JUMPDEST CALLVALUE DUP1 ISZERO PUSH2 0xC8 JUMPI PUSH0 PUSH0 REVERT JUMPDEST POP PUSH2 0xD1 PUSH2 0x17E JUMP JUMPDEST PUSH1 0x40 MLOAD PUSH2 0xDE SWAP2 SWAP1 PUSH2 0x2F8 JUMP JUMPDEST PUSH1 0x40 MLOAD DUP1 SWAP2 SUB SWAP1 RETURN JUMPDEST CALLVALUE DUP1 ISZERO PUSH2 0xF2 JUMPI PUSH0 PUSH0 REVERT JUMPDEST POP PUSH2 0xFB PUSH2 0x1A3 JUMP JUMPDEST PUSH1 0x40 MLOAD PUSH2 0x108 SWAP2 SWAP1 PUSH2 0x381 JUMP JUMPDEST PUSH1 0x40 MLOAD DUP1 SWAP2 SUB SWAP1 RETURN JUMPDEST PUSH0 SLOAD DUP2 JUMP JUMPDEST PUSH1 0x2 SLOAD DUP2 JUMP JUMPDEST DUP1 PUSH0 DUP2 SWAP1 SSTORE POP CALLER PUSH1 0x1 PUSH0 PUSH2 0x100 EXP DUP2 SLOAD DUP2 PUSH20 0xFFFFFFFFFFFFFFFFFFFFFFFFFFFFFFFFFFFFFFFF MUL NOT AND SWAP1 DUP4 PUSH20 0xFFFFFFFFFFFFFFFFFFFFFFFFFFFFFFFFFFFFFFFF AND MUL OR SWAP1 SSTORE POP CALLVALUE PUSH1 0x2 DUP2 SWAP1 SSTORE POP PUSH0 CALLDATASIZE PUSH1 0x3 SWAP2 DUP3 PUSH2 0x17A SWAP3 SWAP2 SWAP1 PUSH2 0x5D5 JUMP JUMPDEST POP POP JUMP JUMPDEST PUSH1 0x1 PUSH0 SWAP1 SLOAD SWAP1 PUSH2 0x100 EXP SWAP1 DIV PUSH20 0xFFFFFFFFFFFFFFFFFFFFFFFFFFFFFFFFFFFFFFFF AND DUP2 JUMP JUMPDEST PUSH1 0x3 DUP1 SLOAD PUSH2 0x1B0 SWAP1 PUSH2 0x405 JUMP JUMPDEST DUP1 PUSH1 0x1F ADD PUSH1 0x20 DUP1 SWAP2 DIV MUL PUSH1 0x20 ADD PUSH1 0x40 MLOAD SWAP1 DUP2 ADD PUSH1 0x40 MSTORE DUP1 SWAP3 SWAP2 SWAP1 DUP2 DUP2 MSTORE PUSH1 0x20 ADD DUP3 DUP1 SLOAD PUSH2 0x1DC SWAP1 PUSH2 0x405 JUMP JUMPDEST DUP1 ISZERO PUSH2 0x227 JUMPI DUP1 PUSH1 0x1F LT PUSH2 0x1FE JUMPI PUSH2 0x100 DUP1 DUP4 SLOAD DIV MUL DUP4 MSTORE SWAP2 PUSH1 0x20 ADD SWAP2 PUSH2 0x227 JUMP JUMPDEST DUP3 ADD SWAP2 SWAP1 PUSH0 MSTORE PUSH1 0x20 PUSH0 KECCAK256 SWAP1 JUMPDEST DUP2 SLOAD DUP2 MSTORE SWAP1 PUSH1 0x1 ADD SWAP1 PUSH1 0x20 ADD DUP1 DUP4 GT PUSH2 0x20A JUMPI DUP3 SWAP1 SUB PUSH1 0x1F AND DUP3 ADD SWAP2 JUMPDEST POP POP POP POP POP DUP2 JUMP JUMPDEST PUSH0 DUP2 SWAP1 POP SWAP2 SWAP1 POP JUMP JUMPDEST PUSH2 0x241 DUP2 PUSH2 0x22F JUMP JUMPDEST DUP3 MSTORE POP POP JUMP JUMPDEST PUSH0 PUSH1 0x20 DUP3 ADD SWAP1 POP PUSH2 0x25A PUSH0 DUP4 ADD DUP5 PUSH2 0x238 JUMP JUMPDEST SWAP3 SWAP2 POP POP JUMP JUMPDEST PUSH0 PUSH0 REVERT JUMPDEST PUSH2 0x26D DUP2 PUSH2 0x22F JUMP JUMPDEST DUP2 EQ PUSH2 0x277 JUMPI PUSH0 PUSH0 REVERT JUMPDEST POP JUMP JUMPDEST PUSH0 DUP2 CALLDATALOAD SWAP1 POP PUSH2 0x288 DUP2 PUSH2 0x264 JUMP JUMPDEST SWAP3 SWAP2 POP POP JUMP JUMPDEST PUSH0 PUSH1 0x20 DUP3 DUP5 SUB SLT ISZERO PUSH2 0x2A3 JUMPI PUSH2 0x2A2 PUSH2 0x260 JUMP JUMPDEST JUMPDEST PUSH0 PUSH2 0x2B0 DUP5 DUP3 DUP6 ADD PUSH2 0x27A JUMP JUMPDEST SWAP2 POP POP SWAP3 SWAP2 POP POP JUMP JUMPDEST PUSH0 PUSH20 0xFFFFFFFFFFFFFFFFFFFFFFFFFFFFFFFFFFFFFFFF DUP3 AND SWAP1 POP SWAP2 SWAP1 POP JUMP JUMPDEST PUSH0 PUSH2 0x2E2 DUP3 PUSH2 0x2B9 JUMP JUMPDEST SWAP1 POP SWAP2 SWAP1 POP JUMP JUMPDEST PUSH2 0x2F2 DUP2 PUSH2 0x2D8 JUMP JUMPDEST DUP3 MSTORE POP POP JUMP JUMPDEST PUSH0 PUSH1 0x20 DUP3 ADD SWAP1 POP PUSH2 0x30B PUSH0 DUP4 ADD DUP5 PUSH2 0x2E9 JUMP JUMPDEST SWAP3 SWAP2 POP POP JUMP JUMPDEST PUSH0 DUP2 MLOAD SWAP1 POP SWAP2 SWAP1 POP JUMP JUMPDEST PUSH0 DUP3 DUP3 MSTORE PUSH1 0x20 DUP3 ADD SWAP1 POP SWAP3 SWAP2 POP POP JUMP JUMPDEST DUP3 DUP2 DUP4 MCOPY PUSH0 DUP4 DUP4 ADD MSTORE POP POP POP JUMP JUMPDEST PUSH0 PUSH1 0x1F NOT PUSH1 0x1F DUP4 ADD AND SWAP1 POP SWAP2 SWAP1 POP JUMP JUMPDEST PUSH0 PUSH2 0x353 DUP3 PUSH2 0x311 JUMP JUMPDEST PUSH2 0x35D DUP2 DUP6 PUSH2 0x31B JUMP JUMPDEST SWAP4 POP PUSH2 0x36D DUP2 DUP6 PUSH1 0x20 DUP7 ADD PUSH2 0x32B JUMP JUMPDEST PUSH2 0x376 DUP2 PUSH2 0x339 JUMP JUMPDEST DUP5 ADD SWAP2 POP POP SWAP3 SWAP2 POP POP JUMP JUMPDEST PUSH0 PUSH1 0x20 DUP3 ADD SWAP1 POP DUP2 DUP2 SUB PUSH0 DUP4 ADD MSTORE PUSH2 0x399 DUP2 DUP5 PUSH2 0x349 JUMP JUMPDEST SWAP1 POP SWAP3 SWAP2 POP POP JUMP JUMPDEST PUSH0 DUP3 SWAP1 POP SWAP3 SWAP2 POP POP JUMP JUMPDEST PUSH32 0x4E487B7100000000000000000000000000000000000000000000000000000000 PUSH0 MSTORE PUSH1 0x41 PUSH1 0x4 MSTORE PUSH1 0x24 PUSH0 REVERT JUMPDEST PUSH32 0x4E487B7100000000000000000000000000000000000000000000000000000000 PUSH0 MSTORE PUSH1 0x22 PUSH1 0x4 MSTORE PUSH1 0x24 PUSH0 REVERT JUMPDEST PUSH0 PUSH1 0x2 DUP3 DIV SWAP1 POP PUSH1 0x1 DUP3 AND DUP1 PUSH2 0x41C JUMPI PUSH1 0x7F DUP3 AND SWAP2 POP JUMPDEST PUSH1 0x20 DUP3 LT DUP2 SUB PUSH2 0x42F JUMPI PUSH2 0x42E PUSH2 0x3D8 JUMP JUMPDEST JUMPDEST POP SWAP2 SWAP1 POP JUMP JUMPDEST PUSH0 DUP2 SWAP1 POP DUP2 PUSH0 MSTORE PUSH1 0x20 PUSH0 KECCAK256 SWAP1 POP SWAP2 SWAP1 POP JUMP JUMPDEST PUSH0 PUSH1 0x20 PUSH1 0x1F DUP4 ADD DIV SWAP1 POP SWAP2 SWAP1 POP JUMP JUMPDEST PUSH0 DUP3 DUP3 SHL SWAP1 POP SWAP3 SWAP2 POP POP JUMP JUMPDEST PUSH0 PUSH1 0x8 DUP4 MUL PUSH2 0x491 PUSH32 0xFFFFFFFFFFFFFFFFFFFFFFFFFFFFFFFFFFFFFFFFFFFFFFFFFFFFFFFFFFFFFFFF DUP3 PUSH2 0x456 JUMP JUMPDEST PUSH2 0x49B DUP7 DUP4 PUSH2 0x456 JUMP JUMPDEST SWAP6 POP DUP1 NOT DUP5 AND SWAP4 POP DUP1 DUP7 AND DUP5 OR SWAP3 POP POP POP SWAP4 SWAP3 POP POP POP JUMP JUMPDEST PUSH0 DUP2 SWAP1 POP SWAP2 SWAP1 POP JUMP JUMPDEST PUSH0 PUSH2 0x4D6 PUSH2 0x4D1 PUSH2 0x4CC DUP5 PUSH2 0x22F JUMP JUMPDEST PUSH2 0x4B3 JUMP JUMPDEST PUSH2 0x22F JUMP JUMPDEST SWAP1 POP SWAP2 SWAP1 POP JUMP JUMPDEST PUSH0 DUP2 SWAP1 POP SWAP2 SWAP1 POP JUMP JUMPDEST PUSH2 0x4EF DUP4 PUSH2 0x4BC JUMP JUMPDEST PUSH2 0x503 PUSH2 0x4FB DUP3 PUSH2 0x4DD JUMP JUMPDEST DUP5 DUP5 SLOAD PUSH2 0x462 JUMP JUMPDEST DUP3 SSTORE POP POP POP POP JUMP JUMPDEST PUSH0 PUSH0 SWAP1 POP SWAP1 JUMP JUMPDEST PUSH2 0x51A PUSH2 0x50B JUMP JUMPDEST PUSH2 0x525 DUP2 DUP5 DUP5 PUSH2 0x4E6 JUMP JUMPDEST POP POP POP JUMP JUMPDEST JUMPDEST DUP2 DUP2 LT ISZERO PUSH2 0x548 JUMPI PUSH2 0x53D PUSH0 DUP3 PUSH2 0x512 JUMP JUMPDEST PUSH1 0x1 DUP2 ADD SWAP1 POP PUSH2 0x52B JUMP JUMPDEST POP POP JUMP JUMPDEST PUSH1 0x1F DUP3 GT ISZERO PUSH2 0x58D JUMPI PUSH2 0x55E DUP2 PUSH2 0x435 JUMP JUMPDEST PUSH2 0x567 DUP5 PUSH2 0x447 JUMP JUMPDEST DUP2 ADD PUSH1 0x20 DUP6 LT ISZERO PUSH2 0x576 JUMPI DUP2 SWAP1 POP JUMPDEST PUSH2 0x58A PUSH2 0x582 DUP6 PUSH2 0x447 JUMP JUMPDEST DUP4 ADD DUP3 PUSH2 0x52A JUMP JUMPDEST POP POP JUMPDEST POP POP POP JUMP JUMPDEST PUSH0 DUP3 DUP3 SHR SWAP1 POP SWAP3 SWAP2 POP POP JUMP JUMPDEST PUSH0 PUSH2 0x5AD PUSH0 NOT DUP5 PUSH1 0x8 MUL PUSH2 0x592 JUMP JUMPDEST NOT DUP1 DUP4 AND SWAP2 POP POP SWAP3 SWAP2 POP POP JUMP JUMPDEST PUSH0 PUSH2 0x5C5 DUP4 DUP4 PUSH2 0x59E JUMP JUMPDEST SWAP2 POP DUP3 PUSH1 0x2 MUL DUP3 OR SWAP1 POP SWAP3 SWAP2 POP POP JUMP JUMPDEST PUSH2 0x5DF DUP4 DUP4 PUSH2 0x3A1 JUMP JUMPDEST PUSH8 0xFFFFFFFFFFFFFFFF DUP2 GT ISZERO PUSH2 0x5F8 JUMPI PUSH2 0x5F7 PUSH2 0x3AB JUMP JUMPDEST JUMPDEST PUSH2 0x602 DUP3 SLOAD PUSH2 0x405 JUMP JUMPDEST PUSH2 0x60D DUP3 DUP3 DUP6 PUSH2 0x54C JUMP JUMPDEST PUSH0 PUSH1 0x1F DUP4 GT PUSH1 0x1 DUP2 EQ PUSH2 0x63A JUMPI PUSH0 DUP5 ISZERO PUSH2 0x628 JUMPI DUP3 DUP8 ADD CALLDATALOAD SWAP1 POP JUMPDEST PUSH2 0x632 DUP6 DUP3 PUSH2 0x5BA JUMP JUMPDEST DUP7 SSTORE POP PUSH2 0x699 JUMP JUMPDEST PUSH1 0x1F NOT DUP5 AND PUSH2 0x648 DUP7 PUSH2 0x435 JUMP JUMPDEST PUSH0 JUMPDEST DUP3 DUP2 LT ISZERO PUSH2 0x66F JUMPI DUP5 DUP10 ADD CALLDATALOAD DUP3 SSTORE PUSH1 0x1 DUP3 ADD SWAP2 POP PUSH1 0x20 DUP6 ADD SWAP5 POP PUSH1 0x20 DUP2 ADD SWAP1 POP PUSH2 0x64A JUMP JUMPDEST DUP7 DUP4 LT ISZERO PUSH2 0x68C JUMPI DUP5 DUP10 ADD CALLDATALOAD PUSH2 0x688 PUSH1 0x1F DUP10 AND DUP3 PUSH2 0x59E JUMP JUMPDEST DUP4 SSTORE POP JUMPDEST PUSH1 0x1 PUSH1 0x2 DUP9 MUL ADD DUP9 SSTORE POP POP POP JUMPDEST POP POP POP POP POP POP POP JUMP INVALID LOG2 PUSH5 0x6970667358 0x22 SLT KECCAK256 0xD3 0xB3 CALL TIMESTAMP 0xE9 TIMESTAMP LOG2 PUSH8 0xC0540B8A723DA5BE PUSH9 0x54A2DA9E438CEC64F8 PUSH25 0x9373A1F15364736F6C634300081E0033000000000000000000 "
				},
				"gasEstimates": {
					"creation": {
						"codeDepositCost": "350400",
						"executionCost": "384",
						"totalCost": "350784"
					},
					"external": {
						"data()": "infinite",
						"sender()": "2552",
						"setVars(uint256)": "infinite",
						"value()": "2425",
						"x()": "2402"
					}
				},
				"methodIdentifiers": {
					"data()": "73d4a13a",
					"sender()": "67e404ce",
					"setVars(uint256)": "6466414b",
					"value()": "3fa4f245",
					"x()": "0c55699c"
				}
			},
			"storageLayout": {
				"storage": [
					{
						"astId": 3,
						"contract": "study/DelegateCall.sol:B",
						"label": "x",
						"offset": 0,
						"slot": "0",
						"type": "t_uint256"
					},
					{
						"astId": 5,
						"contract": "study/DelegateCall.sol:B",
						"label": "sender",
						"offset": 0,
						"slot": "1",
						"type": "t_address"
					},
					{
						"astId": 7,
						"contract": "study/DelegateCall.sol:B",
						"label": "value",
						"offset": 0,
						"slot": "2",
						"type": "t_uint256"
					},
					{
						"astId": 9,
						"contract": "study/DelegateCall.sol:B",
						"label": "data",
						"offset": 0,
						"slot": "3",
						"type": "t_bytes_storage"
					}
				],
				"types": {
					"t_address": {
						"encoding": "inplace",
						"label": "address",
						"numberOfBytes": "20"
					},
					"t_bytes_storage": {
						"encoding": "bytes",
						"label": "bytes",
						"numberOfBytes": "32"
					},
					"t_uint256": {
						"encoding": "inplace",
						"label": "uint256",
						"numberOfBytes": "32"
					}
				}
			},
			"userdoc": {
				"kind": "user",
				"methods": {},
				"version": 1
			}
		}
	}
}